:020000040800F2
:1000000028F8012015030008230300089561000863
:1000100027030008290300082B0300080000000044
:100020000000000000000000000000002D03000898
:100030002F0300080000000007040008599600087C
:10004000350300083503000835030008CD8A000891
:1000500035030008350300083503000835030008A0
:100060003503000835030008350300083503000890
:10007000350300083503000881330008AD3300085C
:100080003503000835030008350300083503000870
:100090003503000835030008350300083503000860
:1000A0003503000829970008350300086D960008FD
:1000B0003503000879970008D19700083503000838
:1000C0003503000835030008350300083503000830
:1000D000350300086D98000835030008099A0008E8
:1000E000350300087D8A0008350300083503000841
:1000F0003503000835030008350300083503000800
:1001000035030008350300083503000835030008EF
:1001100035030008350300080598000831980008E9
:1001200035030008D93300083503000835030008FB
:1001300009340008393A000835030008350300087F
:10014000350300083503000835030008B5870008AB
:10015000350300083503000835030008350300089F
:10016000350300083503000835030008350300088F
:1001700035030008350300084D3300080000000077
:10018000350300083503000800F002F800F0B2F86B
:100190000AA090E8000C82448344AAF10107DA45E2
:1001A00001D100F0A7F8AFF2090EBAE80F0013F082
:1001B000010F18BFFB1A43F00103184718C60300CC
:1001C00038C603000A444FF0000C10F8013B13F04E
:1001D000070408BF10F8014B1D1108BF10F8015BA0
:1001E000641E05D010F8016B641E01F8016BF9D193
:1001F00013F0080F1EBF10F8014BAD1C0C1B09D1EA
:100200006D1E58BF01F801CBFAD505E014F8016B5B
:1002100001F8016B6D1EF9D59142D6D370470000ED
:100220000023002400250026103A28BF78C1FBD8FF
:10023000520728BF30C148BF0B6070476E2901F0DC
:10024000CD80702901F0F18166292CF06584652943
:100250002CF0628467292CF05F8461292CF05E8485
:1002600003681B0A28BF41F08001692901F07A80E8
:10027000642901F07780752901F074806F2901F0FD
:100280007E81782901F0BD81E92901F01981E429F5
:1002900001F01681F52901F01381EF2901F07B812E
:1002A000F82901F0BC810368DB0928BF41F0800117
:1002B000632901F0FE87732902F00380E32902F02D
:1002C0002180F32902F02680002070471FB52CF012
:1002D0001EFC02F0E1F80400002000212CF042F89E
:1002E000401C6060002000212CF052F8E0601FBD2F
:1002F00010B510BD02F008FB1146FFF7E7FF20F034
:1003000013FA02F026FB03B4FFF7F2FF03BC0EF072
:10031000CEFE00000B48016841F4700101600A48FC
:100320000047FEE7FEE7FEE7FEE7FEE7FEE7FEE743
:10033000FEE7FEE7FEE7000004480549034A054BD7
:100340007047000088ED00E08901000828F40120D2
:1003500028F8012028F40120EFF3098121B120EDD4
:10036000108A42490A6810607047B0EC108A404910
:100370000A681060704772B602B4EFF3118180F31F
:100380001188BFF34F8FBFF36F8F084602BC62B670
:10039000704772B680F31188BFF34F8FBFF36F8F32
:1003A00062B6704772B633484FF0FF01017000200B
:1003B00080F309883048016881F3088807F02AFE35
:1003C0002E48012101702E482E490A7802702748D4
:1003D00027490A680260106880F30988EFF31480E7
:1003E00040F0020080F31488BFF36F8FBDE8F04F38
:1003F0000FBCBDE8005006BC62B6084722484FF06B
:1004000080510160704772B640F28442C2F200022D
:10041000116881F31188BFF34F8FBFF36F8F62B6FE
:10042000EFF3098020E9F04F104D29680860744609
:1004300007F0F0FD124813490A7802700C490A6867
:100440002A6044F0040E1068B0E8F04F80F3098889
:1004500040F20002C0F2000272B682F31188BFF3CC
:100460004F8FBFF36F8F62B670470000A804002063
:10047000B004002022ED00E0800400208F04002062
:100480008C0400208D04002004ED00E081FB00209E
:10049000704701464FF0000081EAE170A0EBE17087
:1004A000704700002DE9F04F82B001904FF00074CA
:1004B0004FF000784FF000054FF0000952F804CBE0
:1004C00052F804EB0868CB6DC0FB0C45D1F88000F6
:1004D000CEF1000EC3FB0E45D1F8DC30C0FB0C8919
:1004E000C3FB0E8952F804CB52F804EB48688B6DBD
:1004F000C0FB0C45D1F88400CEF1000EC3FB0E45C5
:10050000D1F8D830C0FB0C89C3FB0E8952F804CB5C
:1005100052F804EB88684B6DC0FB0C45D1F888009D
:10052000CEF1000EC3FB0E45D1F8D430C0FB0C89D0
:10053000C3FB0E8952F804CB52F804EBC8680B6D6C
:10054000C0FB0C45D1F88C00CEF1000EC3FB0E456C
:10055000D1F8D030C0FB0C89C3FB0E8952F804CB14
:1005600052F804EB0869CB6CC0FB0C45D1F8900045
:10057000CEF1000EC3FB0E45D1F8CC30C0FB0C8988
:10058000C3FB0E8952F804CB52F804EB48698B6C1C
:10059000C0FB0C45D1F89400CEF1000EC3FB0E4514
:1005A000D1F8C830C0FB0C89C3FB0E8952F804CBCC
:1005B00052F804EB88694B6CC0FB0C45D1F89800ED
:1005C000CEF1000EC3FB0E45D1F8C430C0FB0C8940
:1005D000C3FB0E8952F804CB52F804EBC8690B6CCC
:1005E000C0FB0C45D1F89C00CEF1000EC3FB0E45BC
:1005F000D1F8C030C0FB0C89C3FB0E8901984FF4C1
:10060000FE4E4EF0FF0E4FEA946444EA85144FEA22
:10061000E47CBCEBE43F18BF8CEA0E044FEA986818
:1006200048EA89184FEAE87CBCEBE83F18BF8CEA3F
:100630000E080480A0F8028002F5707201F5805166
:100640004FF000744FF000784FF000054FF00009B4
:1006500052F804CB0868D1F88030C0FB0C45C3FBCE
:100660000C8952F804CB4868D1F88430C0FB0C45A3
:10067000C3FB0C8952F804CB8868D1F88830C0FBE2
:100680000C45C3FB0C8952F804CBC868D1F88C30F8
:10069000C0FB0C45C3FB0C8952F804CB0869D1F8A8
:1006A0009030C0FB0C45C3FB0C8952F804CB486961
:1006B000D1F89430C0FB0C45C3FB0C8952F804CB35
:1006C0008869D1F89830C0FB0C45C3FB0C8952F8FF
:1006D00004CBC869D1F89C30C0FB0C45C3FB0C8926
:1006E00001984FF4FE4E4EF0FF0E4FEA946444EA38
:1006F00085144FEAE47CBCEBE43F18BF8CEA0E049F
:100700004FEA986848EA89184FEAE87CBCEBE83F72
:1007100018BF8CEA0E08A0F84040A0F84280A2F56D
:100720007872A1F570614FF00F0C00F10400CDF864
:1007300000C001904FF000744FF000784FF0007649
:100740004FF0007A4FF000054FF000094FF000071E
:100750004FF0000B52F804CB52F804EB0868CB6D55
:10076000C0FB0C45C0FB0E67CEF1000EC3FB0C674F
:10077000C3FB0E45D1F8DC30D1F88000C3FB0E89F5
:10078000C3FB0CABCEF1000EC0FB0C89C0FB0EAB63
:1007900052F804CB52F804EB48688B6DC0FB0C4553
:1007A000C0FB0E67CEF1000EC3FB0C67C3FB0E450A
:1007B000D1F8D830D1F88400C3FB0E89C3FB0CAB51
:1007C000CEF1000EC0FB0C89C0FB0EAB52F804CB7F
:1007D00052F804EB88684B6DC0FB0C45C0FB0E67FC
:1007E000CEF1000EC3FB0C67C3FB0E45D1F8D4302D
:1007F000D1F88800C3FB0E89C3FB0CABCEF1000E11
:10080000C0FB0C89C0FB0EAB52F804CB52F804EBD2
:10081000C8680B6DC0FB0C45C0FB0E67CEF1000E27
:10082000C3FB0C67C3FB0E45D1F8D030D1F88C0068
:10083000C3FB0E89C3FB0CABCEF1000EC0FB0C89D1
:10084000C0FB0EAB52F804CB52F804EB0869CB6C3A
:10085000C0FB0C45C0FB0E67CEF1000EC3FB0C675E
:10086000C3FB0E45D1F8CC30D1F89000C3FB0E8904
:10087000C3FB0CABCEF1000EC0FB0C89C0FB0EAB72
:1008800052F804CB52F804EB48698B6CC0FB0C4562
:10089000C0FB0E67CEF1000EC3FB0C67C3FB0E4519
:1008A000D1F8C830D1F89400C3FB0E89C3FB0CAB60
:1008B000CEF1000EC0FB0C89C0FB0EAB52F804CB8E
:1008C00052F804EB88694B6CC0FB0C45C0FB0E670B
:1008D000CEF1000EC3FB0C67C3FB0E45D1F8C4304C
:1008E000D1F89800C3FB0E89C3FB0CABCEF1000E10
:1008F000C0FB0C89C0FB0EAB52F804CB52F804EBE2
:10090000C8690B6CC0FB0C45C0FB0E67CEF1000E36
:10091000C3FB0C67C3FB0E45D1F8C030D1F89C0077
:10092000C3FB0E89C3FB0CABCEF1000EC0FB0C89E0
:10093000C0FB0EAB01F5807101984FF4FE4E4EF0F6
:10094000FF0E4FEA946444EA85144FEAE47CBCEB62
:10095000E43F18BF8CEA0E044FEA986848EA891809
:100960004FEAE87CBCEBE83F18BF8CEA0E084FEA80
:10097000966646EA87164FEAE67CBCEBE63F18BF70
:100980008CEA0E064FEA9A6A4AEA8B1A4FEAEA7C28
:10099000BCEBEA3F18BF8CEA0E0ADDF800C000EBA2
:1009A000CC0E2EF8026B2EF802AB20F8024B20F88A
:1009B000028BBCF1010C7FF4BAAE02B0BDE8F08F3F
:1009C0002DE9F04F82B001904FF000744FF0000518
:1009D00052F804CB52F804EB0868CB6DCEF1000E50
:1009E000C0FB0C45C3FB0E4552F804CB52F804EB98
:1009F00048688B6DCEF1000EC0FB0C45C3FB0E4565
:100A000052F804CB52F804EB88684B6DCEF1000E1F
:100A1000C0FB0C45C3FB0E4552F804CB52F804EB67
:100A2000C8680B6DCEF1000EC0FB0C45C3FB0E4534
:100A300052F804CB52F804EB0869CB6CCEF1000EEF
:100A4000C0FB0C45C3FB0E4552F804CB52F804EB37
:100A500048698B6CCEF1000EC0FB0C45C3FB0E4504
:100A600052F804CB52F804EB88694B6CCEF1000EBF
:100A7000C0FB0C45C3FB0E4552F804CB52F804EB07
:100A8000C8690B6CCEF1000EC0FB0C45C3FB0E45D4
:100A900001984FF4FE4E4EF0FF0E4FEA946444EA84
:100AA00085144FEAE47CBCEBE43F18BF8CEA0E04EB
:100AB000048002F5707201F580514FF000744FF020
:100AC000000552F804CB0868C0FB0C4552F804CB73
:100AD0004868C0FB0C4552F804CB8868C0FB0C4545
:100AE00052F804CBC868C0FB0C4552F804CB086927
:100AF000C0FB0C4552F804CB4869C0FB0C4552F8CA
:100B000004CB8869C0FB0C4552F804CBC869C0FB14
:100B10000C4501984FF4FE4E4EF0FF0E4FEA9464E0
:100B200044EA85144FEAE47CBCEBE43F18BF8CEA4E
:100B30000E040484A2F57872A1F570614FF00F0CD9
:100B400000F10200CDF800C001904FF000744FF0AA
:100B500000764FF000054FF0000752F804CB52F832
:100B600004EB0868CB6DC0FB0C45C0FB0E67CEF1F3
:100B7000000EC3FB0E45C3FB0C6752F804CB52F8C2
:100B800004EB48688B6DC0FB0C45C0FB0E67CEF1D3
:100B9000000EC3FB0E45C3FB0C6752F804CB52F8A2
:100BA00004EB88684B6DC0FB0C45C0FB0E67CEF1B3
:100BB000000EC3FB0E45C3FB0C6752F804CB52F882
:100BC00004EBC8680B6DC0FB0C45C0FB0E67CEF193
:100BD000000EC3FB0E45C3FB0C6752F804CB52F862
:100BE00004EB0869CB6CC0FB0C45C0FB0E67CEF173
:100BF000000EC3FB0E45C3FB0C6752F804CB52F842
:100C000004EB48698B6CC0FB0C45C0FB0E67CEF152
:100C1000000EC3FB0E45C3FB0C6752F804CB52F821
:100C200004EB88694B6CC0FB0C45C0FB0E67CEF132
:100C3000000EC3FB0E45C3FB0C6752F804CB52F801
:100C400004EBC8690B6CC0FB0C45C0FB0E67CEF112
:100C5000000EC3FB0E45C3FB0C6701F580710198C4
:100C60004FF4FE4E4EF0FF0E4FEA946444EA8514B2
:100C70004FEAE47CBCEBE43F18BF8CEA0E044FEA79
:100C8000966646EA87164FEAE67CBCEBE63F18BF5D
:100C90008CEA0E06DDF800C000EB8C0E2EF8026B1D
:100CA00020F8024BBCF1010C7FF44CAF02B0BDE860
:100CB000F08F00002DE9FE4F8446D0F800E0DCF80C
:100CC00004B00EF1BC0292E80C040CF11C0696E88C
:100CD000C003BBEB0A0ACEF8C4A0CEF8C8B00BFB29
:100CE00006F00AFB070003FB080002FB0900C8BF6F
:100CF0006FF0000AB8BF4FF0010ABBF1000FC8BF88
:100D00006FF0000BB8BF4FF0010BCEF844A0CEF847
:100D100048B0DCF80C60DCF810700EF1980292E834
:100D20001C04C6EB4616A7EB661BCCF80C700CF146
:100D30003C0595E8E003BBEB0A0ACEF8A4A0CEF888
:100D4000A8B00BFB05F10AFB061104FB071103FB1E
:100D5000081102FB0911C8BF6FF0000AB8BF4FF0BD
:100D6000010ABBF1000FC8BF6FF0000BB8BF4FF016
:100D7000010BCEF824A0CEF828B0009A00EB610059
:100D8000DCF818401368C4EB441403EBA021CCF842
:100D9000041001EB6411CCF8181042F8041B009207
:100DA000002B39D00EF118021CCA1EDBA5EB0B0577
:100DB000A6EB0A06A9EB0209A8EB0308A7EB0407B8
:100DC0000CF13C0080E8E0030CF11C0191E83C00D0
:100DD0000EF13C0696E8C003A5EB0605A4EB07045C
:100DE000A3EB0803A2EB090214E05D4456449144CE
:100DF000984427440CF13C0080E8E0030CF11C010E
:100E000091E83C000EF13C0696E8C00335443C44B2
:100E100043444A4481E83C00DCF808B00EF17C020F
:100E200092E80C040CF12C0696E8C003BBEB0A0A0E
:100E3000CEF884A0CEF888B00BFB06F00AFB0700C2
:100E400003FB080002FB0900C8BF6FF0000AB8BF2F
:100E50004FF0010ABBF1000FC8BF6FF0000BB8BF25
:100E60004FF0010BCEF834A0CEF838B0DCF81460A7
:100E7000DCF818700EF1580292E81C04C6EB461616
:100E8000A7EB661BCCF814700CF1500595E8E00355
:100E9000BBEB0A0ACEF864A0CEF868B00BFB05F1F4
:100EA0000AFB061104FB071103FB081102FB0911E1
:100EB000C8BF6FF0000AB8BF4FF0010ABBF1000FC6
:100EC000C8BF6FF0000BB8BF4FF0010BCEF810A0F9
:100ED000CEF814B0019A00EB6100DCF81040136802
:100EE000C4EB441403EBA021CCF8081001EB64110F
:100EF000CCF8101042F8041B0192002B39D00EF1EF
:100F000004021CCA1EDBA5EB0B05A6EB0A06A9EB27
:100F10000209A8EB0308A7EB04070CF1500080E8D6
:100F2000E0030CF12C0191E83C000EF12C0696E850
:100F3000C003A5EB0605A4EB0704A3EB0803A2EB93
:100F4000090214E05D4456449144984427440CF14E
:100F5000500080E8E0030CF12C0191E83C000EF118
:100F60002C0696E8C00335443C4443444A4481E897
:100F70003C000EF1040E0CF1640BAEF5006A029811
:100F8000DA4509D0401E18BF02907FF498AECCF825
:100F900000E003B0BDE8F08FBEE8FF03ABE8FF035D
:100FA000BEE8FF03ABE8FF03BEE8FF03ABE8FF03C7
:100FB000BEE8FF03ABE8FF03BEE8FF03ABE8FF03B7
:100FC00002980CF1640E401E18BF02907FF477AEB9
:100FD000DDE72DE9F64F8446D0F800E0DCF804B0F8
:100FE0000EF1BC0292E80C040CF11C0595E8C0035C
:100FF000BBEB0A0ACEF8C4A0CEF8C8B00BFB06F0D3
:101000000AFB070003FB080002FB0900C8BF6FF0E2
:10101000000AB8BF4FF0010ABBF1000FC8BF6FF064
:10102000000BB8BF4FF0010BCEF844A0CEF848B08B
:10103000009ADCF818401368C4EB441403EBA021B9
:10104000CCF8041001EB6411CCF8181042F8041B22
:101050000092002B13D0DEF83C20DEF8403008DB95
:10106000A6EB0B06A7EB0A07A9EB0209A8EB0308FE
:1010700003E05E4457449144984485E8C0030EF170
:10108000040E0CF1640BAEF5006A0198DA4508D045
:10109000401E18BF0190A1D1CCF800E002B0BDE81D
:1010A000F08FBEE8FF03ABE8FF03BEE8FF03ABE849
:1010B000FF03BEE8FF03ABE8FF03BEE8FF03ABE8B6
:1010C000FF03BEE8FF03ABE8FF0301980CF1640ED9
:1010D000401E18BF019081D1DEE7704753EA020C31
:1010E00000F069802DE9F04B4FF00006002B1FBF88
:1010F000B3FA83F503FA05F424FA05F65E4012BF4D
:101100001643B2FA82F502FA05F4C5F120051EBFB6
:1011100022FA05FC44EA0C04203556EA044C4FEA56
:10112000144418BF641C4FF000084FF000099042AF
:1011300071EB030C39D3002919BFB1FA81F701FA19
:1011400007F6B0FA80F700FA07F6C7F120071EBFCE
:1011500020FA07FC46EA0C062037B6FBF4FCA7EBA6
:101160000507103F07F01F0BCBF120060CFA0BFB15
:101170002CFA06F644BFB3460026202FA4BF5E46D5
:101180004FF0000B5BEA060C08BF4FF0010B19EBA8
:101190000B09ABFB027C48EB0608C01B06FB02CC2C
:1011A0000BFB03CC71EB0C01C1E70B460246414639
:1011B0004846BDE8F08B13B54FF000004FF000013A
:1011C000AFF30080BDE81C407047B2F120030AD5A0
:1011D000C2F1200320FA02F001FA03F341FA02F10E
:1011E00040EA0300704741FA03F04FEAE1717047AB
:1011F00010B54C1084EA530404D54042C1F10001FB
:1012000038BF491E1B4204D55242C3F1000338BF08
:101210005B1EFFF763FF14F0804F04D04042C1F122
:10122000000138BF491E14F0004F04D05242C3F1F0
:10123000000338BF5B1E10BD1CB50C46064B7B443B
:1012400069460090204601F012F8044600206946E5
:1012500001F020F820461CBD531000000FB40449D3
:1012600010B503AA029801F031F810BC5DF814FB28
:10127000280200200FB41CB5084B06AA7B4469461F
:101280000090059800F0F3FF04460020694601F045
:1012900001F820461CBC5DF814FB0000151000008E
:1012A00070B5044685690068C10601D5302600E0A6
:1012B0002026C00707D070BDD4E9012130469047F1
:1012C000206A401C20626D1EF6D570BD70B50446C4
:1012D00085690078C00707D170BDD4E901212020BD
:1012E0009047206A401C20626D1EF6D570BD0968CB
:1012F0004A0501D540B27047C905FCD500B2704718
:1013000009684A0501D5C0B27047C905FCD580B24D
:10131000704770B50C460546012A05D0287880062E
:1013200000D5EA69002302E0012305E05B1C93423B
:1013300002D2E05C0028F9D1A869E618C01AA861B9
:10134000286A184428622846FFF7AAFF04E0D5E976
:10135000012114F8010B9047B442F8D32846FFF757
:10136000B5FF70BD2DE9F0410646002410687529CF
:10137000314616A510D0FFF7BAFF002802DA404226
:1013800013A507E031688A0701D512A502E04907D5
:1013900004D511A5012401E0FFF7B2FF00210A22C4
:1013A00006F1240709E0B0FBF2FCB0FBF2F302FB0C
:1013B0001C00303078541846491C0028F3D12346CD
:1013C0002A463046BDE8F04100F0E3BC00000000D2
:1013D0002D0000002B0000002000000011680268B2
:1013E000006A530501D508700AE0D30501D50880CD
:1013F00006E0130603D5C217C1E9000200E0086049
:10140000012070472DE9FF5F15468A460446DFF844
:10141000AC80F8440027D8E900103E46CDE9001022
:1014200010E03AF816106A4602A800F0D4FF411CFA
:1014300007D02178890603D5E269391891420DD881
:101440000744761C2078800602D5E069B84205DDA5
:10145000AE42E6DB3AF816000028E2D1A069C01BD4
:10146000A0612046FFF71CFFD8E90010CDE900106D
:10147000002017E03AF818106A4602A800F0ABFF07
:10148000B0F1FF3F81460BD000250DF1080B05E0C0
:10149000D4E901211BF8050090476D1C4D45F7D399
:1014A00008F10100B0428046E4DB206A3844206243
:1014B0002046FFF70BFFBDE8FF9F0000D698030012
:1014C0002DE9F0418046D21D22F007020025D2E925
:1014D0000002F52915A614D0011E72F1000106DAEA
:1014E0000023D0EB030063EB020211A608E0D8F85A
:1014F00000108B0701D50FA602E0490701D50EA603
:1015000001251146002408F1240704E000F0FCFB4B
:1015100030323A55641C50EA0102F7D12B4632466C
:1015200021464046BDE8F04100F033BC0000000019
:101530002D0000002B0000002000000030B400212E
:1015400000F1240408E002F00705D208303542EA31
:101550004372DB086554491C52EA0305F3D1046861
:10156000002310A2250707D5A40600D421B1C46921
:1015700001230DA2641EC46130BC00F00ABC10B58A
:10158000044621461068FFF7BBFE02462046BDE830
:1015900010400023D2E7D21D22F00701D1E9002339
:1015A000CCE700000000000030000000F0B40D4661
:1015B0000188090502D5214C7C4402E01F4C7C4483
:1015C0000E34002100F1240608E002F00F07120992
:1015D000E75D42EA03721B097754491C52EA03078C
:1015E000F3D102780023120704D5702D06D009B17B
:1015F000022311342246F0BC00F0CBBB012310348F
:10160000F8E770B504460D4621461068FFF778FEEE
:10161000024629462046BDE870400023C6E7D21D99
:1016200022F00703D3E90023C0E70368126843F000
:10163000200303600823C3610023B7E73897030042
:101640002DE9F05F894604464FF0000ADFF874B1D7
:10165000FB44C0F820A02046E1688847002874D0E9
:10166000252806D0D4E901219047206A401C206239
:10167000F1E700265F462046E168884720280546B6
:1016800007DB312D05D2781910F8200C08B106437C
:10169000F1E7B00701D526F00406C4F81CA0002726
:1016A000C4F818A02A2D09D028460DF0F9FC38B34B
:1016B00004EB8708303DC8F8185019E059F8041BAE
:1016C000204604EB87029161E1688847012F0546B7
:1016D00018D1E069002820DA26F020061DE0D8F8AD
:1016E000180000EB800005EB40003038C8F8180007
:1016F0002046E168884705460DF0D2FC0028EED16F
:10170000012F0AD02E2D08D12046E16888477F1C82
:101710000546022F46F02006C4DBA069002803DA44
:10172000404246F00106A061F00701D026F0100605
:101730006C2D0BD0682D09D04C2D39D06A2D35D0A9
:10174000742D35D07A2D33D016E038E0E1682F467D
:1017500020468847B842054609D16C2F26D04FF461
:101760008060E168064320468847054604E06C2F08
:101770001AD04FF4807006430DB3A5F1410019282B
:1017800002D8203546F400664A462946204626609F
:101790004E46FEF753FD80B101280BD0F61D26F012
:1017A000070000F1080956E74020E4E78020D8E769
:1017B0000020D6E706F104094DE7284652E7206AE3
:1017C000BDE8F09FC89603002DE9F04791460F460B
:1017D00080460446002614F8015B2DB100F088FA1B
:1017E0000068405DC007F6D12B2D02D02D2D18D0FA
:1017F000641E4A463946204600F09EFD27B13968EE
:10180000A14201D1C7F800804FF0020471050BD549
:101810004042002803DD00F073FA0460A007BDE831
:10182000F08746F48066E4E70028F8DA00F068FA0A
:1018300004606FF00040F2E7401ECAB210F8011FCA
:101840008A4202D00029F9D10020704730B5054600
:101850000B462A4613F8014B12F8010B08B1A042BF
:10186000F8D01CB1002802D06D1CF1E7284630BD2D
:1018700040EA010310B59B070FD1042A0DD310C80D
:1018800008C9121F9C42F8D020BA19BA884201D95F
:10189000012010BD4FF0FF3010BD1AB1D30703D0A7
:1018A000521C07E0002010BD10F8013B11F8014B5D
:1018B0001B1B07D110F8013B11F8014B1B1B01D179
:1018C000921EF1D1184610BD40EA0103024630B520
:1018D0009B0710D14FF0013400E008C208C91D1B5E
:1018E0009D4315EAC41FF8D013F0FF0102F8011B55
:1018F0000DD01B0AF8E711F8013B002B02F8013B61
:1019000005D011F8013B002B02F8013BF3D130BDAB
:1019100010B5431C02E010F8011B71B18107FAD128
:101920004FF0013202C88C1A8C4314EAC211F9D06C
:10193000C01A0A0603D0C01E10BDC01A10BD0A048A
:1019400001D0801E10BD0902FCD0401E10BD40EA2F
:10195000010370B59B072ED14FF00136042A2AD31C
:1019600008C810C99D1B9D43121F15EAC61517D044
:10197000D8B2E1B2401A50EA056110D198B2A1B2D2
:10198000401A50EA05410AD123F07F4024F07F41FC
:10199000401A50EA052102D1180EA0EB146070BD68
:1019A000A342DBD018BA21BA884201D9012070BD08
:1019B0004FF0FF3070BD0AB9002070BD10F8013B38
:1019C00011F8014B63B1A3420AD1521E08D010F89E
:1019D000013B11F8014B1BB1A34201D1521EEDD1C5
:1019E000181B70BD421E12F8013F002BFBD111F8ED
:1019F000013B002B02F8013BF9D17047032A40F26A
:101A0000308010F0030C00F0158011F8013BBCF1A0
:101A1000020F624498BF11F801CB00F8013B38BFB8
:101A200011F8013BA2F1040298BF00F801CB38BFC6
:101A300000F8013B11F0030300F06780083AC0F0A2
:101A4000088051F8043B083A51F804CBA0E808108C
:101A5000F5E7121D5CBF51F8043B40F8043BAFF3BF
:101A60000080D20724BF11F8013B11F801CB48BF19
:101A700011F8012B24BF00F8013B00F801CB48BF4F
:101A800000F8012B7047431A28BF9A427FF6B6AF81
:101A9000032A1044114440F2268010F0030F1EBFA9
:101AA00011F8013D521E00F8013D10F0030F7FF4C4
:101AB000F6AF11F0030300F0C184083AC0F00B80C8
:101AC00051F8043D083A51F804CD40F8043D40F87F
:101AD00004CDFFF7F3BF121D5CBF51F8043D40F881
:101AE000043DAFF30080D20724BF11F8013D11F887
:101AF00001CD48BF11F8012C24BF00F8013D00F8CA
:101B000001CD48BF00F8012C704710B5203AC0F055
:101B10000B80B1E81850203AA0E81850B1E81850EE
:101B2000A0E81850BFF4F5AF5FEA027C24BFB1E82B
:101B30001850A0E8185044BF18C918C0BDE810409C
:101B40005FEA827C24BF51F8043B40F8043B08BFA5
:101B50007047D20728BF31F8023B48BF11F8012B6C
:101B600028BF20F8023B48BF00F8012B704702F065
:101B7000FF0343EA032242EA024200F002B84FF0B8
:101B800000020429C0F0128010F0030C00F01B804A
:101B9000CCF1040CBCF1020F18BF00F8012BA8BF58
:101BA00020F8022BA1EB0C0100F00DB85FEAC17C1C
:101BB00024BF00F8012B00F8012B48BF00F8012BCF
:101BC00070474FF0000200B5134694469646203900
:101BD00022BFA0E80C50A0E80C50B1F12001BFF4E6
:101BE000F7AF090728BFA0E80C5048BF0CC05DF84C
:101BF00004EB890028BF40F8042B08BF704748BF9A
:101C000020F8022B11F0804F18BF00F8012B70470D
:101C100010B5044610F0030F08BF11F0030F40F099
:101C200015804FF0013E121FC0F20E8051F8043BA8
:101C3000A3EB0E0C2CEA030C1CEACE1C08BF40F8E8
:101C4000043BF0D0A1F1040102F10402521E08DBB2
:101C500011F8013B002B00F8013BF7D11146FFF7CB
:101C60008EFF204610BD00004FF0013C50F8042BC1
:101C700051F8043B9A4221D1A2EB0C03934313EA9F
:101C8000CC1317D150F8042B51F8043B9A4215D1CC
:101C9000A2EB0C03934313EACC130BD150F8042BA3
:101CA00051F8043B9A4209D1A2EB0C03934313EA87
:101CB000CC13DBD04FF00000704700BFD01A01BA40
:101CC000B1FA81F101F0180122FA01F0CB40C1F123
:101CD0002001DBB2C0B2C01A2CFA01F3D11A914331
:101CE00011EAC311E6D170477047704770477047DB
:101CF00010B500F0D1FB001D10BD00BF69A60200A9
:101D000000487047C4F3012030B5B0F10A024FEA31
:101D1000900E71F100034EEA817EB0EB0E0061EB94
:101D200091014FEA101E4EEA017E10EB0E0041EBCE
:101D300011114FEA102E4EEA016E10EB0E0041EB2E
:101D400011214FEA104E4EEA014E10EB0E0041EB0E
:101D50001141401841F100014FEAD00040EA4170C2
:101D60004FEAD10110EB80054FEA810444EA9074F8
:101D700044EB01046D1944EB0404521BA3414FF0E2
:101D8000000348BF0A3200D530BD401C41F10001BC
:101D900030BD2DE9F0470D4699469246044600F1C4
:101DA00024080168880604D5E06921F0100121604B
:101DB00000E00120A84201DD471B00E00027A169E7
:101DC0007A1902EB0900081AA0612078C00602D433
:101DD0002046FFF765FA002608E0D4E901211AF849
:101DE00006009047206A401C761C20624E45F4DBBA
:101DF0002078C0060AD52046FFF752FA06E0D4E95B
:101E0000012130209047206A401C2062381EA7F133
:101E10000107F4DC07E0D4E9012118F80500904738
:101E2000206A401C2062281EA5F10105F3DC204633
:101E3000FFF74CFA2078000602D50220BDE8F087B3
:101E40000120FBE770472DE9FF4F0C461E464FF07F
:101E5000FF378BB0D2E90001DDF860800A908A4636
:101E6000C1F30A5505B93D46002108464FF0000070
:101E7000BAF1000F00F4400005DA00EB80004FF4E7
:101E8000400101EA50004FEA9059B9F1010F00DD1D
:101E9000B9460A9850EA4A000ED044F61050A5F20E
:101EA000FF3545432F14B8F1000F1ED07542291E8F
:101EB0001EDDC9F100021CE0B8F1010F4FF0000077
:101EC00001D0302103E0F24305E02154401CB04230
:101ED000FBDB30460022002121540B99C1F8088019
:101EE000C1E900200FB0BDE8F08FBD1B6D1CDEE71F
:101EF0004A4600DA694206A800F090FC06AB93E877
:101F0000070003AB83E8070050460A9900F02AFD5A
:101F10008DE80700A0F500501F3800900398002DB1
:101F20000ADD42F21F014A460844002303A9039038
:101F3000684600F093FF09E0A0F500504A461F38BC
:101F4000002303A90390684600F09DFF8DE8070079
:101F50000004000C03D04FF0FF30410800E01046B1
:101F6000B8F1000F03D00022009215461EE0751E46
:101F700005D4FFF7C9FE303262556D1EF9D5B34660
:101F80000122084302D000227F1C04E02078302880
:101F900001D100227F1E002A099784D01DE0112D57
:101FA00007DAFFF7B1FE303262556D1C50EA0102CC
:101FB000F5D1084302D00098C8B10EE00021681E98
:101FC00005E0235C625C63542254401E491C81423C
:101FD000F7DBAB46A81B401E0990002004F80B005D
:101FE0000B98099AC0F80880C0E9002B7AE71126FF
:101FF0004FF0000857E72DE9F04F88460446D21D00
:1020000022F0070191B0D1E90001CDE90A010DF0FC
:102010002FF802460B98C00F01D02D2007E0206852
:10202000810701D52B2002E0202101EAC000032A0C
:10203000099001D0072A05DB03464146204600F0FF
:10204000ADFB0BE12078800601D5E06900E00620B9
:10205000B8F1650F814606D0B8F1660F18D0B8F117
:10206000670F70D131E00020B9F1110F009001DB52
:10207000112301E009F101030AAA01A90CA8FFF745
:10208000E2FEDDE90C70002609F10105834647E018
:1020900001204B4600904FF000470AAA01A90CA866
:1020A000FFF7D1FEDDE90DB00C995D46002610B9B1
:1020B00009F101000D18B9EB050003D4C0F1FF369A
:1020C00009F10105A5EB09002BE0B9F1010F01DAD7
:1020D0004FF001090020B9F1110F0090484601DDD1
:1020E000112300E003460AAA01A90CA8FFF7ABFEE2
:1020F000DDE90C704D4600268346207800070AD49F
:10210000AB4500DA5D4601A8012D04DD411911F847
:10211000011C302907D04F4502DA17F1040F04DA09
:10212000012082460FE06D1EEEE7002F02DCED1B62
:102130003E4403E0781CA84200DD7D1CB81B00F182
:10214000010A4FF000472078000703D4AA4501DBBD
:102150004FF0FF3A0021B7F1004F0DF143088DF821
:10216000431024D002202B23002F01DA7F422D239D
:102170000A21021EA0F1010000DC5FB197FBF1FC17
:1021800097FBF1F201FB1C7C17460CF1300C08F8B0
:1021900001CDEEE7A8F1010003702188090501D502
:1021A000452100E06521A0F1010800F8011C099813
:1021B0000FA9A1EB0807FF1D00B10120411901EB98
:1021C000EA70A1693844081A401EA0612078C00650
:1021D00002D42046FFF764F8099828B1D4E9012118
:1021E0009047206A401C20622078C00622D52046F5
:1021F000FFF756F81EE0002E04DBB34502DD01A810
:10220000805D00E03020D4E901219047206A401C25
:102210002062761CAAF101005FEA000A0AD100F0F0
:102220003BF9C0680168405CD4E901219047206A0D
:10223000401C2062281EA5F10105DCDC07E0D4E982
:10224000012118F8010B9047206A401C2062381EBB
:10225000A7F10107F3DC2046FFF738F8032011B09F
:1022600041E6000001694A1C02610878704700B528
:102270008FB0CDE901310021059105497944CDE9BF
:10228000031011466846FFF7DBF90FB000BD0000F0
:10229000E5FFFFFF0A6802F8010B0A60704710B5FE
:1022A000436913B1AFF3008001E0FFF732F801207A
:1022B00010BD127800F124010A7000224A70012238
:1022C000EDE711684FF0FF32E9E70000074B70B50A
:1022D0000D467B44FFF7CBFF0446284600F010FB79
:1022E00010B14FF0FF3070BD204670BDC3710100CA
:1022F00010B5436913B1AFF3008001E0FFF782F836
:10230000012010BD128800F1240182840022C284C1
:102310000122EDE711684FF0FF32E9E73A2800D2D9
:10232000303820F02002412A01D3A2F13700884240
:1023300001D34FF0FF3070472DE9F05F824615461C
:102340008B4600270AF10104B9460078302801D0F5
:102350009DB113E014F8010B0127782803D0582809
:1023600001D045B10AE00DB1102D07D1002714F8B6
:10237000010B102502E0082500E00A250026B046E2
:102380000EE005FB080005FB06F101271FFA80F8A7
:1023900001EB1046B6F5803F00D3B94614F8010BA7
:1023A0002946FFF7BBFF0028EBDABBF1000F05D091
:1023B0000FB1641E00E05446CBF80040B9F1000FA5
:1023C00006D0FFF79DFC02210160C81EBDE8F09F0A
:1023D00048EA0640FAE770B516460C460546FFF790
:1023E00087FC036893F80101012806D0FF2C0FD861
:1023F000185D68B101202C7070BDD3F8070132461A
:10240000214603F2071303442846BDE870401847ED
:102410004FF0FF3070BD431A28BF9A427FF675AB6C
:10242000104410F0030F11441EBF11F8013D521E5D
:1024300000F8013D10F0030F7FF4F6AF103AC0F042
:102440000A8010B531E91850103A20E91850BFF44D
:10245000F9AFBDE81040530724BF31E9081020E967
:10246000081044BF51F8043D40F8043D12F0030F3A
:1024700008BF7047D20728BF31F8023D48BF11F8A6
:10248000012C28BF20F8023D48BF00F8012C7047FE
:1024900000487047C4F3012000487047E4F301206E
:1024A0002DE9F04F04460D46D21D22F0070089B0F9
:1024B000D0E90097484639460CF0DAFD0246F80F9D
:1024C00001D02D2307E02068810701D52B2302E0EE
:1024D000202101EAC0038DF820300BB1012000E07B
:1024E0000020032A824601D0072A04DB2946204621
:1024F00000F054F93FE12078800601D40D2500E07A
:10250000E569C7F30A560D2D49DA00214FEA175B3A
:1025100008464FF00000002F00F4400007DA00EBFF
:1025200080004FF4400100EBD07001EA600081159B
:10253000012901DD4FF0FF3100224FEA850CBCF18B
:10254000180F06D31346ACF118004FF08052C2406A
:1025500003E04FF4801323FA0CF30CF10C0CBCF1E4
:10256000200F04D3ACF1200C09FA0CF001E007FABB
:102570000CF000294FF0004801DD18B90FE00ED132
:1025800040450CD319EB02095F4121B9404502D106
:102590009F4329EA0209BBEB175F00D0761C208815
:1025A000000502D57B48784402E07A48784419381F
:1025B00008AA302302F80A30037C0AF10101002E38
:1025C0000AF1020A53546A4602DC4FF0300101E07E
:1025D0004FF031014FF001088DF8001002D0A6F243
:1025E000FF3603E059EA470100D06B4E002D02DCB4
:1025F0002178090704D54FF002082E218DF801102B
:10260000C44600210BE0C7F303433F01C35C491CF0
:102610006D1E02F80830052908F1010801DA002DC5
:10262000F1DC00210CE000EB1973491C1B786D1ED6
:10263000082902F808304FEA091908F1010801DAFF
:10264000002DF0DC21688B0602D516E0A8F1010808
:10265000E04505DD02EB080313F8013C302BF5D013
:10266000B8F1000F09DD02EB080313F8013C2E2B33
:1026700003D1090701D4A8F10108002D05DD3E2191
:1026800002F808106D1E08F10108407C002E02F8C7
:10269000080008F1010804DA2D20764202F808004B
:1026A00002E02B2002F808000A214FF47A708642DB
:1026B00008F101080BDB96FBF0F3303302F8083029
:1026C00096FBF0F308F1010800FB136601E0642EAD
:1026D0000CDB642096FBF0F3303302F8083096FBF5
:1026E000F0F308F1010800FB136601E00A2E06DB97
:1026F00096FBF1F0303002F8080008F1010896FB73
:10270000F1F001FB1060303002F80800A16908F117
:10271000010808EB050202EB0A00081AA061207804
:10272000C00602D42046FEF7BBFD216A08AE01EBCD
:102730000A00206204E0D4E9012116F8010B904759
:10274000BAF1010AF7D22078C00602D52046FEF77A
:10275000A7FD6E4609E016F8010B3E280FD0D4E91C
:1027600001219047206A401C2062B8F10108F2D292
:102770002046FEF7ABFD09B00320BDE8F08F206ACC
:102780002844206203E0D4E90121302090476D1EE7
:10279000EBD3F8E79687030002FCFFFF2DE9F04139
:1027A0001F46044603260168072A01F4006004DB83
:1027B00008B116A505E016A503E008B115A500E0CF
:1027C00015A521F010002060A069C01EA0610FB106
:1027D000401EA0612046FEF763FD4FB1D4E9012100
:1027E00038469047206A401C2062C01C206206E0E8
:1027F000206AFAE7D4E9012115F8010B9047761E0B
:10280000F8D22046FEF762FDBDE8F0814E414E0051
:102810006E616E00494E4600696E66002DE9F04714
:10282000814616468AB0354878440DC88DE80D00BB
:1028300032487844801C03AC0DC884E80D0041F692
:102840009B300844372190FBF1F290FBF1F5A5F1A4
:10285000800501FB12041B3C02D56442012000E00C
:102860000020DFF898A080460027FA44AAF1BE0AAB
:102870000EE0E0070AD03246684607EB4701012325
:102880000AEB810100F0FFFA8DE8070064107F1C5D
:10289000002CEED1194F7F44AE3F19E0E80715D068
:1028A00007EB04100DF1180A90E80E008AE80E00FC
:1028B000C068F04201D1981908903246012306A958
:1028C00003A800F0E0FA03AB83E807006D10641C76
:1028D000002DE3D14FF0010332466946B8F1000FF5
:1028E00003A802D000F0BAFA01E000F0CCFAC9E97E
:1028F0000001C9F808200AB0BDE8F087A4850300EC
:10290000007B00F0800070477546FFF7C1FDAE46C2
:1029100005006946534620F00700854618B020B5EB
:10292000FDF70AFDBDE820404FF000064FF000071C
:102930004FF000084FF0000B21F00701AC46ACE867
:10294000C009ACE8C009ACE8C009ACE8C0098D46D4
:10295000704710B50446AFF300802046BDE8104034
:10296000FDF7D1BC5FEA400C08BF91F0000F4FEAC1
:102970008C234FEAC12243EA51514FEA1C5018BF41
:1029800000F5F0404FEA300018BF41F000415FEA27
:102990006C5C00F02980BCF1FF3F08BF40F0804034
:1029A0007047130C06BF12044FF0100C4FF0000CD0
:1029B000130E04BF12020CF1080C130F04BF120116
:1029C0000CF1040C930F04BF92000CF1020CD30F16
:1029D00004BF52000CF1010C11464FF00002A0F1AF
:1029E0001F00A0EB0C00704711F0004F08BF7047AC
:1029F00031F000413FF4D5AF0B0C06BF09044FF096
:102A0000100C4FF0000C0B0E04BF09020CF1080C67
:102A10000B0F04BF09010CF1040C8B0F04BF8900DC
:102A20000CF1020CCB0F04BF49000CF1010CCCF1EE
:102A30002003A0EB0C0022FA03F302FA0CF241EAA5
:102A4000030100F10100704720F07F4C80EA030091
:102A500023F07F47ACEB070303F57C5300F0004005
:102A600003F1FF032DE980494FEA154B09B44FEA02
:102A7000144325EA0B4E24EA03480FF2042606EB22
:102A8000132749083E785FEA320203FB0667C7F561
:102A9000000707FB06F64FEA54374FEAD64606F121
:102AA000020607FB066CCCF1005C4FEA1C472CEADF
:102AB000074C07FB06F40CFB06F504EB15464FEA42
:102AC000961634BF00204FF000404FEAD13706FB86
:102AD00007FC4FEA1C4C0CFB0BF7D21B03FB0CF75B
:102AE00061EB07010CFB0EF7B0EB074072EB1742EE
:102AF0000CFB08F734BFA2EB0742B2EB074261EBD5
:102B000017414FEA0C444FEA910706FB07FC4FEAD6
:102B10001C4C0CFB0BF7B0EBC74072EB573203FBBE
:102B20000CF734BFA2EBC742B2EBC74261EB57319F
:102B30000CFB0EF7B0EBC70072EB57720CFB08F7FB
:102B400034BFA2EBC702B2EBC70261EB5771039F20
:102B50004FEA816141EA921104EBCC044FEAD1378C
:102B60004FEA826206FB07FC42EA90124FEA80605D
:102B70004FEA1C4C0CFB0BF7D21B03FB0CF761EB71
:102B800007010CFB0EF7B0EB074072EB17420CFB92
:102B900008F734BFA2EB0742B2EB074261EB1741E3
:102BA0004FEA8C554FEA910704EB9C2406FB07FC87
:102BB0004FEA1C4C0CFB0BF7B0EBC74072EB5732E3
:102BC00003FB0CF734BFA2EBC742B2EBC74261EB89
:102BD00057310CFB0EF7B0EBC70072EB57720CFBD2
:102BE00008F734BFA2EBC702B2EBC70261EB577123
:102BF00015EB4C254FEA816141EA92114FEA82625E
:102C00004FEAD13742EA901206FB07FC44F1000478
:102C10004FEA80604FEA1C4C0CFB0BF7D21B03FB06
:102C20000CF761EB07010CFB0EF7B0EB074072EB02
:102C300017420CFB08F734BFA2EB0742B2EB074286
:102C400061EB174115EB1C154FEA813141EA9241C6
:102C50004FEA823242EA90424FEA80304FEA0C76E5
:102C600044F1000448EA03434EEA0B484FF0000EDB
:102C7000B2EB080C71EB030724BF624639464EEBFA
:102C80000E0E4FF0000B0018524149414BEB0B0B5D
:102C9000B2EB080C71EB03077BF1000B24BF62461B
:102CA00039464EEB0E0E4FF0000B001852414941D1
:102CB0004BEB0B0BB2EB080C71EB03077BF1000B3A
:102CC00024BF624639464EEB0E0E51EA020718BF8A
:102CD00046F0010616EB0E7655F1000254F10001A4
:102CE00003D5BDE88901BDE80088BDE88901BDE8DC
:102CF0000048B619524141EB0101A3F101037047AD
:102D000080807F7E7D7C7B7A797877767675747328
:102D1000727171706F6E6E6D6C6C6B6A6A696868E7
:102D2000676666656464636362616160605F5F5E7D
:102D30005E5D5D5C5C5B5B5A5A59595858575756F3
:102D40005655555554545353525252515150505058
:102D50004F4F4F4E4E4D4D4D4C4C4C4B4B4B4A4AAA
:102D60004A494949484848474747474646464545EE
:102D70004544444444434343434242424241414127
:102D8000002B9C4630D477002BD01CB54FEA370778
:102D900003B44FF010004FF01001BAF1000F06D04D
:102DA000BCF1000FDCBF40F0080040F008014FF01C
:102DB00000000FBCBDE810400BF1010BBBF1010F8F
:102DC00008BF5FEA170722BF12F1010211F10101EA
:102DD0004FF0004143F1000300F0004043EA0000DF
:102DE0007047F9D35708D0E746EA064613F1400F7B
:102DF0004FEA16461FDD13F1200FDFBF16430A46C8
:102E0000002120335B42BED0C3F1200746EA0646CC
:102E100002FA07F74FEA164646EA0706C3F120070B
:102E200022FA03F201FA07F721FA03F14FF0000347
:102E300042EA0702A7E746EA020646EA06464FEAE2
:102E4000164646EA0106BCBF46EA0646360C4FF077
:102E500000034FF000024FF0000194E72DE9804C91
:102E60009A46934670B491E8380007C831EA400C9E
:102E700048BF34EA430C03D5FFF7E6FDFFF780FFB8
:102E8000F0BCBDE8008C2DE9804C9A46934670B4A6
:102E900091E8380007C810F0804F08BF13F0804F4A
:102EA00003D100F005F8FFF76BFFF0BCBDE8008C24
:102EB00020F07F4780EA030023F07F4C07EB0C03F0
:102EC000A3F57C5300F00040A3F1FE0392F0000F45
:102ED00000F0B38095F0000F00F077802DE90149F4
:102EE0004FEA11404FEA144621EA004800FB06FC75
:102EF00024EA064708FB06F607FB08F800FB07F77D
:102F000018EB06484CEB164C4FEA124B18EB0748EF
:102F10004FEA15464CEB174022EA0B4E0BFB06FC22
:102F200025EA06470EFB06F607FB0EFE0BFB07F72E
:102F30001EEB064E4CEB164C4FF000061EEB074EF8
:102F40004CEB174B18EB0B0840F1000018EB0E0B85
:102F500058EB000840F100008F1A4FF000013CBF11
:102F6000C943661B14BFB5EB040C00213CBFC94329
:102F7000F61B4FEA17444EEA8E0E27EA04454FEA45
:102F80001C4704FB07622CEA074C05FB07F70CFB08
:102F900005F604FB0CFC16EB074642EB174216EB5A
:102FA0000C4642EB1C421BEB060658EB0202414169
:102FB00046EA9E0601D5BDE80189B619524141EBAA
:102FC0000101A3F10103BDE801894FEA14454FEA6D
:102FD000114724EA054621EA074C05FB07F406FBE6
:102FE00007F70CFB06F105FB0CFC11EB074144EB6A
:102FF00017444FEA124711EB0C4144EB1C4422EA00
:10300000074C05FB07F206FB07F70CFB06F605FB72
:103010000CFC16EB074642EB174216EB0C4642EB54
:103020001C456A1854F1000148BF7047B619524157
:1030300041EB0101A3F10103704795F0000F37D078
:103040004FEA11424FEA144721EA024624EA074CAC
:1030500002FB07F106FB07F70CFB06F402FB0CFC76
:1030600014EB074441EB17414FEA154714EB0C44AE
:1030700041EB1C4125EA074C02FB07F506FB07F76D
:103080000CFB06F602FB0CFC16EB074645EB17455E
:1030900016EB0C4645EB1C42121951F1000148BFDA
:1030A0007047B619524141EB0101A3F1010370478A
:1030B0004FEA14454FEA114724EA054621EA074C36
:1030C00005FB07F106FB07F70CFB06F24FF00006C5
:1030D00005FB0CFC12EB074241EB174112EB0C42D3
:1030E00051EB1C4148BF7047921841EB0101A3F11D
:1030F000010370472DE9F05F0D46044601E1834E60
:10310000D4F844B0D4F84880D6F800A059465046C8
:10311000D6F80490FDF7BAF9074641464846FDF750
:10312000B5F9381A4000606441465046FDF7AEF9E3
:10313000074659464846FDF7A9F938444000A064BF
:10314000D4F840B0D6F80890D4F84C805946484698
:10315000D6F80CA0FDF79AF9074641465046FDF710
:1031600095F9381A4000206441464846FDF78EF92B
:10317000074659465046FDF789F938444000E06457
:10318000D4F83CB0D6F810A0D4F850805946504638
:10319000D6F81490FDF77AF9074641464846FDF700
:1031A00075F9381A4000E06341465046FDF76EF964
:1031B000074659464846FDF769F9384440002065FE
:1031C000D4F838B0D6F81890D4F854805946484608
:1031D000D6F81CA0FDF75AF9074641465046FDF7C0
:1031E00055F9381A4000A06341464846FDF74EF9AC
:1031F000074659465046FDF749F938444000606596
:10320000D4F834B0D6F820A0D4F858905946504697
:10321000D6F82480FDF73AF9074649464046FDF7BF
:1032200035F9381A4000606349465046FDF72EF9DB
:10323000074659464046FDF729F938444000A06545
:10324000D4F830B0D6F828A0D4F85C80594650465F
:10325000D6F82C90FDF71AF9074641464846FDF787
:1032600015F9381A4000206341465046FDF70EF923
:10327000074659464846FDF709F938444000E065DD
:10328000D4F82CB0D6F830A0D4F860905946504607
:10329000D6F83480FDF7FAF8074649464046FDF770
:1032A000F5F8381A4000E06249465046FDF7EEF85E
:1032B000074659464046FDF7E9F838444000206685
:1032C000D4F82890D6F83880D4F864A0F66B494634
:1032D0004046FDF7DBF8074651463046FDF7D6F885
:1032E000381A4000A06251464046FDF7CFF8074625
:1032F00049463046FDF7CAF8384440006066483415
:103300006D1E002D3FF7FBAEBDE8F09F8CA10308BA
:1033100008B1002103E0202070474000491C00282C
:10332000FBDA0846704708B1002103E0202070470F
:103330004000491C0028FBDA08467047002213466B
:1033400001E08354521C8A42FBDB704710B504F045
:1033500013F8094C2069C00709D019F0C5F9606954
:1033600040F00100606105480178491C0170BDE82A
:10337000104004F00DB80000000005508C02002041
:1033800010B503F0F9FF07480168090106D5816807
:1033900041F000618160044840688047BDE810400A
:1033A00003F0F6BF00600240F801002010B503F002
:1033B000E3FF07484168890606D5C16841F020014E
:1033C000C160044800688047BDE8104003F0E0BFDA
:1033D00000600240F801002010B503F0CDFF08485E
:1033E0000068000508D506480830016841F400610E
:1033F0000160044840688047BDE8104003F0C8BF42
:10340000006402408C02002006480068800608D54F
:1034100005490120087003480830016841F0200187
:1034200001607047046402408802002010B500214A
:103430000A4600EB8103491CC3F884240F29F8D302
:1034400000214FF400734418491C84F81C2299424F
:10345000F9D30270427001218170C0F8C424017652
:1034600040238371427680F81C2480F81D1480F874
:103470001F2480F81E24002010BD00002DE9FC4F01
:10348000B1F10009DDE90B4532DD002B24DBB64943
:103490000193B64E51F8221006EB410EB44951F893
:1034A000326001EBC201002291F804A0694211F0E0
:1034B000070104D014F8012BC1F12005AA405B1AC2
:1034C000BAF1000F09D0BAF1010F14D0BAF1030F0D
:1034D00070D0BAF1020F6DD042E100210A4605E03A
:1034E00040F8212000EB8103891C5A604945F7DB35
:1034F0000020BDE8FC8F9EF800500EF1020C05F094
:103500000F0A0027102B0EDB14F8015BC1F118061F
:10351000B540154314F8012BC1F11006B2402A43FF
:103520001031103B3DE0CD18002DD5DD002B05DD21
:1035300014F8016BC1F11807BE403243082B05DDBA
:1035400014F8013BC1F110018B401A4329466E1E4D
:103550004FF00045354100232A400B270B3120E076
:10356000CAF1200522FA05F53CF81560350B491B18
:10357000AA40C6F303152DB102F00048520048EAF4
:103580000505491EC6F303262EB102F0004852007D
:1035900048EA0606491EB94273DBE0E80256A9F183
:1035A0000209B9F1000F02DD0B29ABDBD8E7C81B1C
:1035B000D2E0FFE7002775460097102B10DB14F8C8
:1035C000017BC1F1180C07FA0CF7174314F8012B13
:1035D000C1F1100C02FA0CF23A431031103BB2E088
:1035E000CF18002F4DDD002B0FDD14F801CBC1F1FA
:1035F00018080CFA08FC4CEA0202082B05DD14F846
:10360000013BC1F110018B401A433946A7F1010C6F
:103610004FF0004747FA0CF73A400B2700230B31D5
:10362000009790E02F7807F00F08C8F1200722FAE2
:1036300007F705EB4707B7F802C05FEA1C3708D069
:10364000C91BBA40CCF30317CCF303250F2F07D0C7
:1036500037E0A1EB080102FA08F205EB4C0572E035
:10366000BAF1030F2ED115B14FF0010C01E04FF06C
:10367000000CB4440CF1010B01EB0308D8456FDBDF
:103680000AE06DE014F801CBC1F118080CFA08FC4F
:1036900008314CEA0202083B5945F3DB002B09DAFA
:1036A0001944A1F101084FF0004C4CFA08FC00232A
:1036B0000CEA0202C6F1200C22FA0CFC891B6744BA
:1036C000B2402FB102F0004C52004CEA0707491EED
:1036D0000F2D28D1BAF1030F26D106F1010B01EB12
:1036E0000308D8453CDB09E014F801CBC1F1180808
:1036F0000CFA08FC08314CEA0202083B5945F3DB9E
:10370000002B09DA1944A1F101084FF0004C4CFAE2
:1037100008FC00230CEA0202C6F1200C22FA0CFC81
:10372000891B6544B2402DB102F0004C52004CEAB6
:103730000505491EDDF800C0614511DBE0E80275B2
:10374000A9F102097546B9F1000F03DD0B29FFF657
:1037500034AF67E70098081A01991844081AC8E6B8
:103760004FF0FF30C5E60000589603083475030893
:10377000D89603082DE9F84F8146DDE90A54002B5D
:1037800002DC0020BDE8F88F4548464E50F8220084
:1037900030440090444850F822E00022604210F08B
:1037A000070404D015F8012BC4F1200082401B1B34
:1037B00000208346A1F1030A6EE0102B0EDB15F802
:1037C000011BC4F11806B140114315F8012BC4F1D7
:1037D0001006B2400A43103B103459E0E1180029AA
:1037E000D0DD002B05DD15F8016BC4F11807BE40D4
:1037F0003243082B05DD15F8013BC4F11004A3404A
:103800001A430C464E1E4FF00041314100230A403E
:103810004FF00A0B0A343BE0CEF12001009E22FA61
:1038200001F1715C0E09A41BB240C1F3C00CBCF1E4
:10383000000F05D002F00046520046EA0C0C641E50
:10384000C1F3800727B102F0004637435200641EDF
:10385000C1F340062EB102F00048520048EA0606C5
:10386000641E11F0010105D002F00048520048EA40
:103870000101641E5C4585DBC9F800C009F1040C38
:10388000001D4CF8047B4CF8046B4CF8041BE1461B
:10389000504501DA0A2CBFDA50458EDB72E7000092
:1038A00028980308D8970308309803082DE9FF4F9C
:1038B00087B08246894600200490504903F00300F7
:1038C00001EB8018103951F8200005901F20B0EB53
:1038D000A30F01DD9E1000E01F26F01C1F2800DA58
:1038E00000E01F20002800DC002000210091D8F813
:1038F000041001410191D8F8081001410291D8F853
:103900000C10014103915AF804BB2BF0004004282D
:1039100002DA5DF820005FE0102807DA58F820008E
:10392000002E01DA714254E0304155E0402809DAB6
:10393000334901EB8000059950F8400CFCF7A6FDD7
:10394000F11E3BE044040025B4F1006F01DA2401CC
:103950000425B4F1005F01DAA400AD1CB4F1804F7E
:1039600001DA64006D1C2748844202DA244FC03714
:1039700001E0234FD43721463868FCF787FD79688A
:1039800008442146FCF782FDB96808442146FCF74B
:103990007DFDF96808442146FCF778FD3969084443
:1039A000194951F82510FCF771FDC0000599FCF785
:1039B0006DFD1549203951F82510711A00290ADAD0
:1039C00049426FF0004323FA01F2824201DA1846BD
:1039D00002E0884000E00841049901430491BBF1F2
:1039E000000F00DA404249F8040B0998401E099084
:1039F00089D104980BB0BDE8F08F00000C73030868
:103A00000C7403089A79825A1475030801494861B5
:103A1000704700000090024002680021002A08DB85
:103A20000268120405D40268D20502D50068C0F30A
:103A30000D4108467047000010B503F09DFC0A4C8C
:103A400001E01CF06BFE2068FFF7E6FF0028F8D1CC
:103A50004020FFF7DBFF4FF48030FFF7D7FFBDE8D2
:103A6000104003F095BC0000980200200B2801D202
:103A70000149087070470000880100202DE9F047D7
:103A80001E000D4604463BD0D107C6F11F074FF07C
:103A900001004FF0000900FA07F0A0F10108CA4642
:103AA00072D02068C11740FA07F28A4201D088EA32
:103AB0000100B0402060FCF7ECFC40EA090954F832
:103AC000800F4042C11740FA07F28A4201D088EACB
:103AD0000100B0402060FCF7DCFC40EA09092868DE
:103AE000C11740FA07F280348A4201D088EA010007
:103AF000B04001C50AF1020ABAF1120FD1DB70E041
:103B0000D0073DD04FF42070D4F880C107594FF44E
:103B10006070D4F8808006594FF49060CCF1000CAE
:103B200005594FF4B060C8F1000803594FF4D06054
:103B30007F4202594FF4F060764201594FF4086019
:103B40006D4250F804904FF42070C4F880C1C4F85E
:103B5000808007514FF460705B4206514FF49060D3
:103B6000524205514FF4B060494203514FF4D060C6
:103B700002514FF4F0600151C9F10000C4F880080F
:103B80000020BDE8F087FFE72068C11740FA07F280
:103B90008A4201D088EA0100B0402060FCF779FC3D
:103BA00040EA090954F8800FC11740FA07F28A4227
:103BB00001D088EA0100B0402060FCF76AFC40EACE
:103BC00009092868C11740FA07F280348A4201D0F7
:103BD00088EA0100B04001C50AF1020ABAF1120FE9
:103BE000D2DB4846CDE7000010B507490446087807
:103BF00040F040020A7005A0FDF730FBD4F8000346
:103C0000BDE8104007F08ABEB2060020436F6E6E1A
:103C10006563746564210D0A0D0A000010B507493B
:103C2000002204460A704A7005A0FDF717FBD4F87D
:103C30000003BDE8104007F07BBE0000B206002084
:103C4000446973636F6E6E6563746564210D0A0D5C
:103C50000A00000010B5044620680AF079FA10BD89
:103C600010B5044620680AF08DFA10BD024601EB3B
:103C7000410000EBC10302F1380000EB830090F833
:103C800028007047024601EB410000EBC10302F13E
:103C9000380000EB83008069704770B504460D461C
:103CA000002600BF94F8F802012801D1022070BD5F
:103CB000012084F8F80200BF294620680AF073FA50
:103CC00000BF002084F8F80200BF3046EFE72DE97E
:103CD000FE4F04460D4616461F46DDE90D9ADDF8F7
:103CE000308000BF94F8F802012802D10220BDE81C
:103CF000FE8F012084F8F80200BF002105EB45008B
:103D000000EBC50204F1380000EB8200417105EBC5
:103D1000450000EBC50104F1380000F8217005EB07
:103D2000450000EBC50104F1380000EB8100A0F86C
:103D300008A005EB450000EBC50104F1380000EBDD
:103D40008100457005EB450000EBC50104F138002A
:103D500000EB810080F8079006F07F0105EB45003D
:103D600000EBC50204F1380000EB8200817006F020
:103D7000800080280AD1012105EB450000EBC50237
:103D800004F1380000EB8200C17009E0002105EB6E
:103D9000450000EBC50204F1380000EB8200C17061
:103DA00005EB450000EBC50104F1380000EB810094
:103DB00080F804808DE800073B463246294620689B
:103DC0000AF0C9FA834600BF002084F8F80200BF59
:103DD00058468CE770472DE9F05F04460D461646BD
:103DE0001F46DDE90C9BDDE90A8A05EB450000EB87
:103DF000C50104F1380000EB8100C67005EB4500F9
:103E000000EBC50104F1380000EB8100C771B8F187
:103E1000000F14D1032105EB450000EBC50204F1AE
:103E2000380000EB8200817205EB450000EBC50114
:103E300004F1380000EB810080F805B009E00221B0
:103E400005EB450000EBC50204F1380000EB8200F1
:103E5000817237B1012F76D0022F33D0032F73D167
:103E600073E0B8F1010F2CD106BBB9F1000F09D1F5
:103E7000012105EB450000EBC50204F1380000EB21
:103E80008200417705EB450000EBC50104F13800E5
:103E900000EB8100407F50B9002105EB450000EBAD
:103EA000C50204F1380000EB8200817209E00221B2
:103EB00005EB450000EBC50204F1380000EB820081
:103EC00081728FE0FEB905EB450000EBC50104F1FE
:103ED000380000EB8100407F50B9002105EB450020
:103EE00000EBC50204F1380000EB8200817229E08A
:103EF000022105EB450000EBC50204F1380000EBA0
:103F0000820081721EE005EB450000EBC50104F163
:103F1000380000EB8100007F50B9002105EB45001F
:103F200000EBC50204F1380000EB8200817209E069
:103F3000022105EB450000EBC50204F1380000EB5F
:103F4000820081724EE041E04BE0FEB905EB450096
:103F500000EBC50104F1380000EB8100407F50B94F
:103F6000002105EB450000EBC50204F1380000EB31
:103F70008200817229E0022105EB450000EBC502B9
:103F800004F1380000EB820081721EE005EB450071
:103F900000EBC50104F1380000EB8100007F50B94F
:103FA000002105EB450000EBC50204F1380000EBF1
:103FB0008200817209E0022105EB450000EBC50299
:103FC00004F1380000EB820081720BE0002105EB68
:103FD000450000EBC50204F1380000EB820081725D
:103FE00000E000BF00BF05EB450000EBC50104F198
:103FF000380000EB8100C0F80CA005EB450000EB99
:10400000C50104F1380000EB8100C0F814900021D4
:1040100005EB450000EBC50204F1380000EB82001F
:1040200080F8281005EB450000EBC50204F13800CC
:1040300000EB8200816105EB450000EBC50104F156
:10404000380000EB81004570002105EB450000EBD6
:10405000C50204F1380000EB820080F82910227CB0
:1040600005EB450303EBC50C04F1380303EB8C01AE
:1040700020680AF049FABDE8F09F2DE9F0410446B6
:10408000D4F80080474620680AF088F801287DD1DE
:1040900020680AF0FDFB08B9BDE8F08120680AF04D
:1040A000F7FB00F40010B0F5001F03D14FF400102F
:1040B0002168486120680AF0EBFB00F48010B0F53D
:1040C000801F03D14FF480102168486120680AF0F6
:1040D000DFFB00F08060B0F1806F03D14FF08060B3
:1040E0002168486120680AF0D3FB00F00200022832
:1040F00001D12168486120680AF0CAFB00F0005035
:10410000B0F1005F0FD14FF0005021684861D7F83F
:10411000400400F0010030B92046FFF77FFD012187
:1041200020680AF059FB20680AF0B2FB00F08070AA
:10413000B0F1807F02D1204601F00FFF20680AF025
:10414000A7FB00F00800082805D1204600F0EAF897
:1041500008202168486120680AF09AFBC0F300102B
:1041600070B12068806920F01000216888612046C5
:1041700001F04EFF2068806940F0100021688861DE
:1041800020680AF085FB00F0007000E029E0B0F143
:10419000007F26D120680AF0B0F90646002519E014
:1041A00005F00F0101208840304090B107F5A06074
:1041B00000EB4510006800F40040B0F5004F04D15A
:1041C000E9B2204600F076FF03E0E9B2204601F0B4
:1041D00022FB6D1CA068A842E2D84FF00070216855
:1041E000486100BF58E730B58BB0044614B90120D0
:1041F0000BB030BD256894F8F90228B9002084F886
:10420000F802204600F02AF8032084F8F902E86B4F
:1042100000F4807008B900212161206809F0B8FB22
:10422000282204F110016846FDF76FFC94E80F00A6
:1042300009F07EF9012120680AF05EFB282204F1D2
:1042400010016846FDF761FC94E80F000AF044FA9B
:10425000012084F8F9020020CAE700002DE9FC41A2
:104260000068B0F1A04F49D12548016841F0010133
:104270000160001D016841F08001016000240325F8
:10428000C614DFF88080CDE900542346022231466F
:10429000404622F047F90222CDE90054D70200231C
:1042A0003946404622F03EF9CDE900540122D403BC
:1042B00000232146404622F035F90A223146404685
:1042C00022F002F90A223946404622F0FDF8002287
:1042D0002146404622F01CF94FF4FA700FF0A8FE78
:1042E00001222146404622F013F902B00223BDE824
:1042F000F04143220321002022F058B9BDE8FC819F
:104300003038024000000240D0F8000307F0D4BB70
:10431000D0F8000307F0D4BB10B5044620680AF0BB
:10432000CDFA10BDD0F8000307F068BB10B5044605
:1043300000BF94F8F802012801D1022010BD01202D
:1043400084F8F80200BF206809F0CCFE0121206843
:1043500009F048FB00BF002084F8F80200BF00BF4E
:10436000ECE710B5044600BF94F8F802012801D12B
:10437000022010BD012084F8F80200BF20680AF076
:1043800097FB00BF002084F8F80200BF00BFF0E7F1
:10439000704702461068416200207047F0B503463E
:1043A00015461868446A21B944EA05401E68B0629F
:1043B00019E01868806A04EB1044002208E01868CD
:1043C00000F5827050F8220004EB1044501CC2B279
:1043D000481E9042F3D844EA0547186800F58270F9
:1043E0004E1E40F826700020F0BDD0F8040405F001
:1043F0009ABDC1EBC10200EB8202D0F80404926CBA
:1044000005F000BDC1EBC10200EB8202D0F804044C
:10441000D2F8082205F04ABD10B504460CB90120B7
:1044200010BD032084F8BD0320680AF013FB08B117
:104430000120F5E7204600F010FD002084F8BD03C0
:1044400000BFEDE710B5064A04460021117005A033
:10445000FCF704FFD4F80404BDE8104005F065BD86
:10446000B2060020555342204465766963652044B6
:104470006973636F6E6E65637465642E0D0A000068
:1044800070B504460E4606F0800080280AD106F07A
:104490000F00C0EBC00104F13C0000EB81050120DE
:1044A000687009E006F00F00C0EBC00104F5FE7073
:1044B00000EB81050020687006F00F00287000BF37
:1044C00094F8BC03012801D1022070BD012084F8BA
:1044D000BC0300BF2946206809F092F800BF002005
:1044E00084F8BC0300BF00BFEFE770B504460E467A
:1044F00006F00F006168884201D9012070BD06F006
:10450000800080280AD106F00F00C0EBC00104F142
:104510003C0000EB81050120687009E006F00F0007
:10452000C0EBC00104F5FE7000EB8105002068704F
:104530000020A87006F00F00287000BF94F8BC039C
:10454000012801D10220D9E7012084F8BC0300BF73
:104550002946206809F090FB00BF002084F8BC03C6
:1045600000BF00BFCAE770B504460D4600BF94F80F
:10457000BC03012801D1022070BD012084F8BC03D6
:1045800000BF05F08000802805D105F00F012068EC
:1045900009F0C6FD02E0206809F0ACFD00BF002074
:1045A00084F8BC0300BF00BFE6E7024601F00F003D
:1045B000C0EBC00302F5FE7000EB8300806970471A
:1045C0002DE9F04705460E4690461F464FF000097C
:1045D00006F0800080280AD106F00F00C0EBC00171
:1045E00005F13C0000EB81040120607009E006F059
:1045F0000F00C0EBC00105F5FE7000EB8104002048
:10460000607006F00F002070C4F80880E7706078D2
:1046100008B12078E080022F01D10020207100BF76
:1046200095F8BC03012802D10220BDE8F0870120E3
:1046300085F8BC0300BF2146286808F0FDFE00BFD6
:10464000002085F8BC0300BF4846EEE72DE9F041A5
:1046500004460E461746984606F00F00C0EBC00110
:1046600004F5FE7000EB8105EF60C5F814800020B2
:10467000A861687006F00F0028702069012800D139
:104680002F6106F00F0028B9227C2946206809F026
:10469000CFF904E0227C2946206809F081FB002044
:1046A000BDE8F08170B504460D4605F00F00616865
:1046B000884201D9012070BD05F0800080280AD110
:1046C00005F00F00C0EBC00104F13C0000EB8106D7
:1046D0000120707007E0C5EBC50104F5FE7000EB2A
:1046E0008106002070700120B07005F00F0030705E
:1046F00000BF94F8BC03012801D10220DBE70120B0
:1047000084F8BC0300BF3146206809F0FCFA05F0CC
:104710000F0028B9217C04F57172206809F074FA41
:1047200000BF002084F8BC0300BF00BFC3E72DE931
:10473000F04104460E461746984606F00F00C0EBBF
:10474000C00104F13C0000EB8105EF60C5F8148066
:104750000020A8610120687006F00F002870206911
:10476000012800D12F6106F00F0028B9227C2946CC
:10477000206809F05DF904E0227C2946206809F0F0
:104780000FFB0020BDE8F0812DE9FC5F04462068A6
:104790000190019D206809F001FD00287DD120686D
:1047A0000AF076F808B9BDE8FC9F20680AF070F8B6
:1047B00000F00200022805D12068406900F00200E4
:1047C0002168486120680AF063F800F010001028A2
:1047D00046D12068806920F0100021688861019826
:1047E000D0F8209009F00F00C0EBC00104F5FE7076
:1047F00000EB810BC9F3434002281AD147F6F07051
:1048000009EA000030B3C9F30A12DBF80C10019872
:104810000AF043F8C9F30A11DBF80C000844CBF89E
:104820000C00C9F30A11DBF818000844CBF8180093
:1048300010E0C9F3434006280CD1082204F5717139
:1048400001980AF02AF8C9F30A11DBF818000844A5
:10485000CBF818002068806940F01000216888615A
:1048600020680AF015F800F40020B0F5002F52D1AE
:104870000026206809F0DCFF824649E00AF00100CA
:10488000E8B3F1B2206809F0F6FF804608F00100B5
:1048900058B1012105F5306000E01EE200EB461042
:1048A00081603146204603F0CFFF08F00800082859
:1048B00009D1082105F5306000EB461081603146D2
:1048C000204603F08FFF08F01000102805D11021BA
:1048D00005F5306000EB4610816008F020002028CC
:1048E00005D1202105F5306000EB4610816008F409
:1048F0000050B0F5005F08D14FF4005100E004E033
:1049000005F5306000EB46108160761C4FEA5A0ACC
:10491000BAF1000FB2D1206809F0BAFF00F480208C
:10492000B0F5802F7ED1206809F078FF82460026FE
:1049300083E00AF0010000287CD0F1B2206809F081
:1049400081FF804608F00100F0B306F00F0101205E
:104950008840009040F634004159009821EA000058
:1049600040F634014851012105F5106000EB461076
:1049700081602069012824D1C6EBC60104F13C0006
:1049800000EB8100C6EBC602C16804F13C0000EBFD
:10499000820080680144C6EBC60204F13C0000EBD3
:1049A0008200C1606EB9C6EBC60104F13C0000EBA9
:1049B0008100406928B904F571720121206809F06D
:1049C00023F9F1B2204600E001E0FFF712FD08F004
:1049D0000800082805D1082105F5106000EB4610F5
:1049E000816008F01000102805D1102105F5106035
:1049F00000EB4610816008F04000402805D14021BE
:104A000005F5106000EB4610816008F002000228F6
:104A100005D1022105F5106000EB4610816008F019
:104A2000800001E00DE005E0802803D131462046FA
:104A300003F0C8FF761C4FEA5A0ABAF1000F7FF460
:104A400078AF206809F024FF00F00040B0F1004F7B
:104A50001CD140F60400405920F0010140F604004A
:104A6000415194F8F403012807D1002084F8F4039D
:104A700000212046FFF78CFC02E0204600F072FA8D
:104A80002068406900F0004021684861206809F012
:104A9000FFFE00F40060B0F5006F0ED140F6080094
:104AA000405900F0010010B1204600F0E5FA2068FE
:104AB000406900F4006021684861206809F0E8FE60
:104AC00000F48050B0F5805F7DD140F6040040597D
:104AD00020F0010140F6040041511021206809F046
:104AE0001FFB00273EE04FF67F3105F5106000EB1D
:104AF0004710816005F5106000EB4710006820F456
:104B0000001105F5106000EB4710016005F510601D
:104B100000EB4710006840F0006105F5106000EB05
:104B2000471001604FF67F3105F5306000EB47100C
:104B3000816005F5306000EB4710006820F400113B
:104B400005F5306000EB4710016005F5306000EBC3
:104B50004710006840F0006105F5306000EB471039
:104B600001607F1C6068B842BDD840F61C00405907
:104B700040F0011140F61C004151206B70B1D5F896
:104B8000840840F00B01C5F8841840F644004059F1
:104B900040F00B0140F6440041510FE040F6140094
:104BA000405942F22B01084340F614014851081FB6
:104BB000405940F00B014FF401604151D5F8000815
:104BC00020F4FE6000E00DE0C5F80008217C04F54B
:104BD0007172206809F018F82068406900F480506C
:104BE00021684861206809F053FE00F40050B0F5D8
:104BF000005F14D1206808F087FC206809F0AFFA44
:104C0000E060227B3649206809F0B0FE204600F0C3
:104C100063F92068406900F4005021684861206809
:104C200009F036FE00F00800082808D1204600F000
:104C3000AFF92068406900F00800216848612068E9
:104C400009F026FE00F48010B0F5801F0AD100267E
:104C50003146204600F046F82068406900F4801094
:104C600021684861206809F013FE00F40010B0F5D7
:104C7000001F0AD100263146204600F037F8206890
:104C8000406900F4001021684861206809F000FEC6
:104C900000F08040B0F1804F08D12046FFF7A5FB1F
:104CA0002068406900F0804021684861206809F070
:104CB000EFFD00F0040004280FD12068D0F8049024
:104CC00009F00400042802D12046FFF7BBFB20684E
:104CD000406840EA09002168486000BF63E50000C1
:104CE000007A030AD0F8040405F070B9D0F804047F
:104CF00005F07CB970B58AB0044614B901200AB039
:104D000070BD266894F8BD0328B9002084F8BC0360
:104D1000204600F0A3F8032084F8BD03F06B00F4F4
:104D2000807008B900212161206808F031FE282236
:104D300004F110016846FCF7E8FE94E80F0008F063
:104D4000F7FB20B1022084F8BD030120D7E7002142
:104D5000206809F0D1FD002531E00121C5EBC50235
:104D600004F13C0000EB82004170C5EBC50104F189
:104D70003C0000F82150C5EBC50100EB8100C58067
:104D80000021C5EBC50204F13C0000EB8200C170BC
:104D9000C5EBC50204F13C0000EB82008160C5EB6D
:104DA000C50204F13C0000EB8200C160C5EBC50206
:104DB00004F13C0000EB82004161681CC5B26068F0
:104DC000A842CAD800252AE00021C5EBC50204F597
:104DD000FE7000EB82004170C5EBC50104F5FE706A
:104DE00000F821500021C5EBC50200EB8200C17024
:104DF000C5EBC50204F5FE7000EB82008160C5EBD7
:104E0000C50204F5FE7000EB8200C160C5EBC5026F
:104E100004F5FE7000EB82004161681CC5B2606859
:104E2000A842D1D8282204F110016846FCF76DFE93
:104E300094E80F0008F0BCFC20B1022084F8BD0308
:104E400001205CE7002084F83800012084F8BD03CD
:104E5000206808F09BFC002051E770472DE9FC41D9
:104E60000068B0F1A04F31D11948016841F001014B
:104E70000160001D016841F08001016000240325EC
:104E8000C614144FCDE90054234602223146384659
:104E900021F048FBCDE900540222D4020023214630
:104EA000384621F03FFB0A223146384621F00CFB00
:104EB0000A222146384621F007FB02B00223BDE852
:104EC000F04143220321002021F070BBBDE8FC81AA
:104ED000303802400000024070B50446C068012529
:104EE00018B1022806D00AA005E010A0FCF7B6F918
:104EF000002502E014A0FCF7B1F9D4F8040405F091
:104F000096F82946D4F80404BDE8704005F0D6B8F8
:104F100055534220446576696365204C696272612D
:104F2000727920205B46533F5D0D0A0055534220A5
:104F3000446576696365204C6962726172792020EC
:104F40005B48535D0D0A0000555342204465766965
:104F50006365204C69627261727920205B46535D03
:104F60000D0A000010B5044604A0FCF777F9D4F848
:104F70000404BDE8104005F087B800004465766978
:104F8000636520526573756D65640D0A000000004D
:104F9000D0F8040405F082B870B504460D4600BF91
:104FA00094F8BC03012801D1022070BD012084F8CF
:104FB000BC0300BF84F838502946206809F0B7FCCC
:104FC00000BF002084F8BC0300BF00BFEDE7D0F8AD
:104FD000042400F57171104605F082B870B50446DE
:104FE000256800BF94F8BC03012801D1022070BDE0
:104FF000012084F8BC0300BFA06A012806D1A06983
:10500000012803D0A86B40F48030A863206809F021
:1050100069F8206808F0A8FB00BF002084F8BC03F2
:1050200000BF00BFE3E770B50446256800BF94F8F1
:10503000BC03012801D1022070BD012084F8BC030B
:1050400000BF206808F0A4FC206808F09FFB102136
:10505000206809F065F8A06A012806D1A069012836
:1050600003D0A86B20F48030A86300BF002084F830
:10507000BC0300BF00BFDFE710B5064A04460021AD
:10508000117005A0FCF7EAF8D4F80404BDE810405C
:1050900005F06BB8B2060020446576696365204967
:1050A0006E2073757370656E64206D6F64652E0D70
:1050B0000A0000002DE9F04705468846D5F8009023
:1050C0004E46444606F5A06000EB4410806800F0B0
:1050D0000400042812D1042106F5A06000EB44105E
:1050E000816006F5A06000EB4410C06840F002014A
:1050F00006F5A06000EB4410C160C9E006F5A060B1
:1051000000EB4410806800F48070B0F5807F22D1FD
:105110004FF4807106F5A06000EB44108160072118
:1051200004EB440000EBC40205F1380000EB820000
:1051300080F8291006F5A06000EB4410C06840F02C
:10514000020106F5A06000EB4410C160E1B22868DE
:1051500009F029F89CE006F5A06000EB4410806897
:1051600000F02000202806D1202106F5A06000EBE9
:10517000441081608CE006F5A06000EB441080686C
:1051800000F00800082827D106F5A06000EB4410C5
:10519000C06840F0020106F5A06000EB4410C16059
:1051A000052104EB440000EBC40205F1380000EBDC
:1051B000820080F82910102106F5A06000EB441051
:1051C0008160082106F5A06000EB44108160E1B227
:1051D000286808F0E8FF5BE006F5A06000EB4410EB
:1051E000806800F48060B0F5806F27D106F5A0607C
:1051F00000EB4410C06840F0020106F5A06000EB2F
:105200004410C160082104EB440000EBC40205F126
:10521000380000EB820080F82910102106F5A0600C
:1052200000EB44108160890106F5A06000EB44109A
:105230008160E1B2286808F0B6FF29E006F5A060B9
:1052400000EB4410806800F08000802820D106F533
:10525000A06000EB4410C06840F0020106F5A060B9
:1052600000EB4410C160062104EB440000EBC402D3
:1052700005F1380000EB820080F82910E1B22868BF
:1052800008F091FF802106F5A06000EB44108160DA
:1052900006F5A06000EB4410806800F40070B0F5E3
:1052A000007F17D106F5A06000EB4410C06840F005
:1052B000020106F5A06000EB4410C160E1B228686D
:1052C00008F071FF4FF4007106F5A06000EB441088
:1052D00081609EE206F5A06000EB4410806800F05B
:1052E000010000287DD02869C8B104EB440000EB20
:1052F000C40105F1380000EB8100016906F5A060EA
:1053000000EB44100069C0F31200091A04EB4400DA
:1053100000EBC40205F1380000EB8200816101213D
:1053200004EB440000EBC40205F1380000EB8200FE
:1053300080F82910002104EB440000EBC40205F1C1
:10534000380000EB82004162012106F5A06000EB0D
:105350004410816004EB440000EBC40105F1380007
:1053600000EB8100C07950B104EB440000EBC401B4
:1053700005F1380000EB8100C079022816D106F54E
:10538000A06000EB4410C06840F0020106F5A06088
:1053900000EB4410C160E1B2286808F004FF10215E
:1053A00006F5A06000EB441081606AE004EB440065
:1053B00000EBC40105F1380000EB8100C07903283F
:1053C00027D106F5A06000EB4410006840F00051C2
:1053D00006F5A06000EB44100160012104EB4400DD
:1053E00000E093E000EBC40205F1380000EB82001E
:1053F00080F8281004EB440000EBC40305F13800EA
:1054000000EB830090F82820E1B22846FEF7E2FC8A
:1054100037E004EB440000EBC40105F1380000EB79
:105420008100C07901282CD1012104EB440000EB5C
:10543000C40205F1380000EB820080F8281004EB6C
:10544000440000EBC40105F1380000EB8100007F4F
:1054500080F0010104EB440000EBC40205F13800C8
:1054600000EB8200017704EB440000EBC40305F17C
:10547000380000EB830090F82820E1B22846FEF7C0
:10548000A9FC286901282CD104EB440000EBC401DD
:1054900005F1380000EB8100016904EB440000EBEA
:1054A000C40205F1380000EB82000089B1FBF0F086
:1054B00000F00100002813D004EB440000EBC4010D
:1054C00005F1380000EB8100007F80F0010104EB62
:1054D000440000EBC40205F1380000EB82000177C4
:1054E00097E104EB440000EBC40105F1380000EB48
:1054F0008100007F80F0010104EB440000EBC40256
:1055000005F1380000EB8200017782E106F5A0602A
:1055100000EB4410806800F0020002287DD106F5FF
:10552000A06000EB4410C06820F0020106F5A06006
:1055300000EB4410C16004EB440000EBC40105F132
:10554000380000EB810090F8290001280BD10121DF
:1055500004EB440000EBC40205F1380000EB8200CC
:1055600080F82810CFE004EB440000EBC40105F103
:10557000380000EB810090F8290005280BD10521A7
:1055800004EB440000EBC40205F1380000EB82009C
:1055900080F82810B7E004EB440000EBC40105F1EB
:1055A000380000EB810090F8290006280BD004EBAE
:1055B000440000EBC40105F1380000EB810090F8D5
:1055C000290008284FD104EB440000EBC40105F189
:1055D000380000EB8100406A401C04EB440101EB01
:1055E000C40205F1380101EB8201486204EB44007A
:1055F00000EBC40105F1380000EB8100406A02288D
:1056000017D9002104EB440000EBC40205F1380077
:1056100000EB82004162042100E089E004EB4400D9
:1056200000EBC40205F1380000EB820080F828107E
:1056300069E0022104EB440000EBC40205F13800EC
:1056400000EB820080F8281006F5A06000EB441003
:10565000076827F0804747F0004706F5A06000EB99
:10566000441007604FE004EB440000EBC40105F177
:10567000380000EB810090F82900032819D102219D
:1056800004EB440000EBC40205F1380000EB82009B
:1056900080F8281006F5A06000EB4410076827F09A
:1056A000804747F0004706F5A06000EB4410076014
:1056B00029E004EB440000EBC40105F1380000EBE5
:1056C000810090F8290007281DD104EB440000EB6D
:1056D000C40105F1380000EB8100406A401C04EB76
:1056E000440101EBC40205F1380101EB820148627B
:1056F000042104EB440000EBC40205F1380000EB88
:10570000820080F82810022106F5A06000EB44100A
:10571000816004EB440000EBC40305F1380000EBAA
:10572000830090F82820E1B22846FEF753FB70E092
:1057300006F5A06000EB4410806800F0100010280F
:1057400067D104EB440000EBC40105F1380000EB25
:105750008100C07903281AD1002104EB440000EB3A
:10576000C40205F1380000EB8200416206F5A0603A
:1057700000EB4410C06840F0020106F5A06000EBA9
:105780004410C160E1B2286808F00DFD3BE004EB75
:10579000440000EBC40105F1380000EB8100C07942
:1057A00050B104EB440000EBC40105F1380000EBFC
:1057B0008100C079022826D1002104EB440000EBCF
:1057C000C40205F1380000EB820041622869D0B9BB
:1057D000032104EB440000EBC40205F1380000EBA8
:1057E000820080F8291006F5A06000EB4410C06824
:1057F00040F0020106F5A06000EB4410C160E1B288
:10580000286808F0D0FC102106F5A06000EB4410D9
:105810008160BDE8F0872DE9F04705460F46D5F8D1
:1058200000904E463C4606F5A06000EB44108068B0
:1058300000F00400042812D1042106F5A06000EB5A
:105840004410816006F5A06000EB4410C06840F091
:10585000020106F5A06000EB4410C1607BE306F591
:10586000A06000EB4410806800F02000202836D1B2
:10587000202106F5A06000EB4410816004EB440099
:1058800000EBC40105F1380000EB810040790128EC
:10589000E4D1002104EB440000EBC40205F1380020
:1058A00000EB82004171022104EB440000EBC402D2
:1058B00005F1380000EB820080F8281006F5A060A2
:1058C00000EB4410C06840F0020106F5A06000EB58
:1058D0004410C160E1B2286808F065FC3BE306F5BE
:1058E000A06000EB4410806800F40070B0F5007F09
:1058F00017D106F5A06000EB4410C06840F002012B
:1059000006F5A06000EB4410C160E1B2286808F021
:105910004AFC4FF4007106F5A06000EB4410816072
:1059200019E306F5A06000EB4410806800F0010068
:10593000E8B3002104EB440000EBC40205F1380099
:1059400000EB8200416206F5A06000EB4410806825
:1059500000F0400040280FD1012104EB440000EB8F
:10596000C40205F1380000EB82004171402106F5C8
:10597000A06000EB4410816006F5A06000EB4410CD
:10598000C06840F0020106F5A06000EB4410C16061
:10599000E1B2286808F007FC012106F5A06000EBE1
:1059A0004410816004EB440000EBC40200E006E018
:1059B00005F1380000EB820080F82910CBE206F5F3
:1059C000A06000EB4410806800F04000402835D112
:1059D000042104EB440000EBC40205F1380000EBA5
:1059E000820080F82910012104EB440000EBC4027E
:1059F00005F1380000EB82004171002104EB440006
:105A000000EBC40205F1380000EB8200416206F5AC
:105A1000A06000EB4410C06840F0020106F5A060F1
:105A200000EB4410C160E1B2286808F0BCFB4021E3
:105A300006F5A06000EB441081608CE206F5A060E2
:105A400000EB4410806800F00800082821D10821EC
:105A500006F5A06000EB4410816006F5A06000EB45
:105A60004410C06840F0020106F5A06000EB44104D
:105A7000C160E1B2286808F096FB052104EB440000
:105A800000EBC40205F1380000EB820080F8291019
:105A900061E206F5A06000EB4410806800F01000A1
:105AA000102849D1002104EB440000EBC40205F1A9
:105AB000380000EB82004162032104EB440000EB5C
:105AC000C40205F1380000EB820080F8291004EBD5
:105AD000440000EBC40105F1380000EB810040797F
